:100000000C9434000C9451000C9451000C94510049
:100010000C9451000C9451000C9451000C9451001C
:100020000C9451000C9451000C9451000C9451000C
:100030000C9451000C9451000C9451000C945100FC
:100040000C9478000C9451000C9451000C945100C5
:100050000C9451000C9451000C9451000C945100DC
:100060000C9451000C94510011241FBECFEFD8E026
:10007000DEBFCDBF11E0A0E0B1E0E0E0F4E002C0FF
:1000800005900D92A830B107D9F721E0A8E0B1E0C2
:1000900001C01D92A131B207E1F70E94C2000C9489
:1000A000FE010C9400003FB7F89480910D019091EF
:1000B0000E01A0910F01B091100126B5A89B05C0BB
:1000C0002F3F19F00196A11DB11D3FBFBA2FA92FD7
:1000D000982F8827BC01CD01620F711D811D911DD4
:1000E00042E0660F771F881F991F4A95D1F7089540
:1000F0001F920F920FB60F9211242F933F938F935D
:100100009F93AF93BF938091090190910A01A091B1
:100110000B01B0910C013091080123E0230F2D3722
:1001200058F50196A11DB11D209308018093090186
:1001300090930A01A0930B01B0930C0180910D01E3
:1001400090910E01A0910F01B09110010196A11D97
:10015000B11D80930D0190930E01A0930F01B093F8
:100160001001BF91AF919F918F913F912F910F906F
:100170000FBE0F901F90189526E8230F0296A11D21
:10018000B11DD2CF789484B5826084BD84B581607E
:1001900084BD85B5826085BD85B5816085BD809152
:1001A0006E00816080936E001092810080918100CA
:1001B00082608093810080918100816080938100C2
:1001C000809180008160809380008091B100846084
:1001D0008093B1008091B00081608093B0008091E5
:1001E0007A00846080937A0080917A0082608093A4
:1001F0007A0080917A00816080937A0080917A0001
:10020000806880937A001092C1008FEF8AB91BB882
:10021000C1E0D0E090E0292E90E0392E882483942C
:10022000912C02E010E033E0A32EB12C85B195B102
:100230008095892B85B9CE010090000102C0880FFE
:10024000991F0A94E2F79E010090020102C0220F5A
:10025000331F0A94E2F7822B9E010090040102C032
:10026000220F331F0A94E2F7822B9E0100900601B1
:1002700002C0220F331F0A94E2F7822B8BB90E942F
:1002800053002B013C018CE2C82EDD24D394E12CD9
:10029000F12C0E9453006419750986099709683E7C
:1002A000734081059105A8F321E0C21AD108E10845
:1002B000F10888EE480E83E0581E611C711CC114C1
:1002C000D104E104F10429F780910601909107011E
:1002D00001969093070180930601089781F480911D
:1002E0000401909105019C012F5F3F4F3093050160
:1002F0002093040102969093070180930601809158
:100300000601909107010897E1F480910401909112
:1003100005010797B1F480910201909103019C01BE
:100320002F5F3F4F30930301209302012F5F3F4F18
:100330003093050120930401039690930701809365
:1003400006018091060190910701089741F580917F
:10035000040190910501079711F580910201909198
:1003600003010697E1F480910001909101019C0145
:100370002F5F3F4F30930101209300012F5F3F4FCC
:1003800030930301209302012F5F3F4F309305010B
:1003900020930401049690930701809306018091B5
:1003A000060190910701089711F580910401909141
:1003B00005010797E1F480910201909103010697EE
:1003C000B1F48091000190910101059781F41092A0
:1003D000010110920001909203018092020110939A
:1003E000050100930401B0920701A09206012114B7
:1003F000310409F41BCF0E94000018CFF894FFCFFE
:080400000000010002000300EE
:00000001FF
