:100000000C9434000C9451000C9451000C94510049
:100010000C9451000C9451000C9451000C9451001C
:100020000C9451000C9451000C9451000C9451000C
:100030000C9451000C9451000C9451000C945100FC
:100040000C9490000C9451000C9451000C945100AD
:100050000C9451000C9451000C9451000C945100DC
:100060000C9451000C94510011241FBECFEFD8E026
:10007000DEBFCDBF11E0A0E0B1E0E8E4F4E002C0F3
:1000800005900D92AA31B107D9F721E0AAE1B1E0BC
:1000900001C01D92A532B207E1F70E94DA000C946C
:1000A00022020C9400003FB7F89480911B019091BC
:1000B0001C01A0911D01B0911E0126B5A89B05C091
:1000C0002F3F19F00196A11DB11D3FBFBA2FA92FD7
:1000D000982F8827BC01CD01620F711D811D911DD4
:1000E00042E0660F771F881F991F4A95D1F7089540
:1000F000CF92DF92EF92FF920E9453006B017C013E
:100100000E9453006C197D098E099F09683E734057
:1001100081059105A8F3FF90EF90DF90CF900895AF
:100120001F920F920FB60F9211242F933F938F932C
:100130009F93AF93BF9380911F0190912001A09155
:100140002101B091220130911A0123E0230F2D37B4
:1001500058F50196A11DB11D20931A0180931F012E
:1001600090932001A0932101B093220180911B0163
:1001700090911C01A0911D01B0911E010196A11D3D
:10018000B11D80931B0190931C01A0931D01B0939E
:100190001E01BF91AF919F918F913F912F910F9031
:1001A0000FBE0F901F90189526E8230F0296A11DF1
:1001B000B11DD2CF789484B5826084BD84B581604E
:1001C00084BD85B5826085BD85B5816085BD809122
:1001D0006E00816080936E0010928100809181009A
:1001E0008260809381008091810081608093810092
:1001F000809180008160809380008091B100846054
:100200008093B1008091B00081608093B0008091B4
:100210007A00846080937A0080917A008260809373
:100220007A0080917A00816080937A0080917A00D0
:10023000806880937A001092C1008FEF8AB98FE3B3
:1002400084B985B9259A24982C9A8AEF482E512C86
:10025000612C712C92E3C92ED12CE12CF12C0AE0F7
:1002600010E02091230130912401C901B8010E94BE
:10027000FA01FC01E15FFE4F4081E0910D01F09138
:100280000E01EC5FFE4F44832A30310544F182E0D9
:1002900090E090930E0180930D01CB01B8010E9474
:1002A000FA01FC01E15FFE4F808180930901243651
:1002B0003105ACF0E3E0F0E0F0930E01E0930D01C6
:1002C000C90164E670E00E94FA01CB01B8010E9406
:1002D000FA01FC01E15FFE4F808180930801E0910B
:1002E0000D01F0910E01EC5FFE4F4483D0E0C0E0C1
:1002F00080910D0190910E0108968C179D070CF4CA
:1003000068C01C995BC0C0920001D0920101E092CC
:100310000201F09203018FB7F89480901F01909032
:100320002001A0902101B09022018FBF0E9478008F
:10033000312C212C2FB7F89480911F01909120012E
:10034000A0912101B09122012FBF88199909AA0912
:10035000BB0940910001509101016091020170912F
:10036000030184179507A607B70788F585B195B1EE
:100370008095892B85B925B181E090E0022C01C0E0
:10038000880F0A94EAF78095822385B9CE018219F5
:10039000930997FD03C08930910514F088E090E03F
:1003A0008C5F9E4FFC0180818BB90E947800FFEF2B
:1003B0002F1A3F0A83E028223324BCCF4092000149
:1003C000509201016092020170920301A4CF219624
:1003D0008FCF809123019091240101969093240165
:1003E0008093230180E090E0892B09F43ACF0E94AA
:1003F000000035CF97FB072E16F4009407D077FD49
:1004000009D00E940E0207FC05D03EF4909581951C
:100410009F4F0895709561957F4F0895AA1BBB1B50
:1004200051E107C0AA1FBB1FA617B70710F0A61BF4
:10043000B70B881F991F5A95A9F780959095BC0115
:08044000CD010895F894FFCFEF
:10044800C8000000767938385C0000000001003FE1
:0A045800065B4F666D7D077F6F00A5
:00000001FF
