:100000000C9434000C943E000C943E000C943E0082
:100010000C943E000C943E000C943E000C943E0068
:100020000C943E000C943E000C943E000C943E0058
:100030000C943E000C943E000C943E000C943E0048
:100040000C943E000C943E000C943E000C943E0038
:100050000C943E000C943E000C943E000C943E0028
:100060000C943E000C943E0011241FBECFEFD8E04C
:10007000DEBFCDBF0E9440000C946F000C940000C6
:1000800084B1826284B984B18E7E84B985B1816184
:1000900085B987B1826287B987B18E7E87B988B109
:1000A000816188B9579A56985E9A1C990EC02D9A0C
:1000B00018990DC0299A30990CC0419A34990BC0F7
:1000C000459A4E990AC05F9AF0CF2D98F1CF2998A2
:1000D000F2CF4198F3CF4598F4CF5F98E6CFF894EC
:0200E000FFCF50
:00000001FF
