:100000000C9434000C9451000C9451000C94510049
:100010000C9451000C9451000C9451000C9451001C
:100020000C9451000C9451000C9451000C9451000C
:100030000C9451000C9451000C9451000C945100FC
:100040000C9490000C9451000C9451000C945100AD
:100050000C9451000C9451000C9451000C945100DC
:100060000C9451000C94510011241FBECFEFD8E026
:10007000DEBFCDBF11E0A0E0B1E0E8E4F3E002C0F4
:1000800005900D92A630B107D9F721E0A6E0B1E0C6
:1000900001C01D92AF30B207E1F70E94DA000C9464
:1000A000A2010C9400003FB7F89480910701909151
:1000B0000801A0910901B0910A0126B5A89B05C0CD
:1000C0002F3F19F00196A11DB11D3FBFBA2FA92FD7
:1000D000982F8827BC01CD01620F711D811D911DD4
:1000E00042E0660F771F881F991F4A95D1F7089540
:1000F000CF92DF92EF92FF920E9453006B017C013E
:100100000E9453006C197D098E099F09683E734057
:1001100081059105A8F3FF90EF90DF90CF900895AF
:100120001F920F920FB60F9211242F933F938F932C
:100130009F93AF93BF9380910B0190910C01A0917D
:100140000D01B0910E013091060123E0230F2D37F0
:1001500058F50196A11DB11D2093060180930B0156
:1001600090930C01A0930D01B0930E0180910701B3
:1001700090910801A0910901B0910A010196A11D79
:10018000B11D8093070190930801A0930901B093DA
:100190000A01BF91AF919F918F913F912F910F9045
:1001A0000FBE0F901F90189526E8230F0296A11DF1
:1001B000B11DD2CF789484B5826084BD84B581604E
:1001C00084BD85B5826085BD85B5816085BD809122
:1001D0006E00816080936E0010928100809181009A
:1001E0008260809381008091810081608093810092
:1001F000809180008160809380008091B100846054
:100200008093B1008091B00081608093B0008091B4
:100210007A00846080937A0080917A008260809373
:100220007A0080917A00816080937A0080917A00D0
:10023000806880937A001092C1008FEF8AB98FE0B6
:1002400084B985B984B18F7C84B985B1806385B95F
:100250008FE0D82E90E0E92E90E0F92E10E000E03B
:100260008FB7F89480900B0190900C01A0900D0135
:10027000B0900E018FBF0E947800D0E0C0E02FB791
:10028000F89480910B0190910C01A0910D01B09117
:100290000E012FBF88199909AA09BB098C32914018
:1002A000A105B10508F041C083B1D5B885FD18C0DE
:1002B000C330D10521F485B18E7085B91CC0C23020
:1002C000D10519F485B18D70F8CFC130D10519F47D
:1002D00085B18B70F2CF209771F485B18770EDCF27
:1002E000209749F3C130D10569F3C230D10581F3BC
:1002F000C330D10591F3C8018C1B9D0B97FD03C042
:100300008630910514F085E090E080509F4FFC010D
:1003100080818BB91C9907C05F9A0E947800219652
:10032000C370DD27ACCF5F98F8CF0F5F1F4F0A3047
:10033000110509F095CFE114F10409F48FCF0E9463
:0803400000008CCFF894FFCF00
:06034800767938385C00F4
:00000001FF
